:100000006F00703A00000000700B0000B0070000A5
:1000100000000000000000000000000000000000E0
:1000200000000000000000000000000000000000D0
:10003000740B000000000000760B000000000000C0
:10004000780B00007A0B00007C0B00007E0B000098
:1000500006070000820B0000840B0000860B0000E6
:10006000880B00008A0B00008C0B00008E0B000038
:10007000900B0000920B0000940B0000960B000008
:10008000F80600009A0B00009C0B00009E0B00007D
:10009000A00B0000A20B0000A40B00000000000059
:1000A000634E050263C305042E86AA857D5515C2DD
:1000B00085466378B6006356C00006068606E36C84
:1000C000B6FE014563E4C500918D558D858205829C
:1000D000F5FA82808682C93F2E8582823305A04050
:1000E0006347B000B305B040C1B7B305B0408682E6
:1000F000653F3305A0408282868263C7050063495D
:1001000005005D372E858282B305B040E35B05FEB6
:100110003305A040513F3305B040828200003111C9
:1001200006C822C626C42EC0AA872DED930600035A
:100130003387C500A30FD7FE81449306E6FF02472D
:100140003304D70063D90602A9A0A9453E85B9C7E3
:100150003EC25D3792479306050393F6F60F3E8540
:100160002300D400A9452D3F0247AA879306F4FF38
:10017000630187023684B3869700E1FA024793074A
:1001800000022300F400814481479306F4FFE31347
:1001900087FEC2403244A244510182809306D002BD
:1001A000814475BF9306F6FF8144E35A05F8B3070F
:1001B000A040854469B7F327003093F777F7739031
:1001C0000730B7066745B727024093863612379740
:1001D000EFCDD4C31307B79AD8C3904B1376060854
:1001E0004DEED4D3D8D3984BA166758F5DE7984B6D
:1001F000B7060200558F98CB37470008130707FC56
:10020000D8CB944B3727024093E6060494CB5C4747
:10021000858BF5FF1C4B8176FD16F58F1CCB1C4B97
:10022000C16637060800D58F1CCB1C4BB726024091
:10023000D18F1CCBDC46858BF5FF9C4A3707040029
:10024000D98F374700082320A7FC9CCAB726024055
:10025000DC46858BF5FFB7470008938707FCDCCAAF
:100260009C4A3727024093E707049CCA5C47858B6A
:10027000F5FF1C4BC176FD16F58F1CCB1C4B93E78D
:1002800007081CCB5C47C18B89EBF327003093E751
:100290008708739007300145828005458280B71733
:1002A0000240D843D17651119386F6F022C226C07F
:1002B00006C4758FD8C3D8439166938656231367B7
:1002C000070BD8C3984FB7F400E037140140558F9F
:1002D00098CF23A40400FD579CC8AD479CC01C4088
:1002E00093F7F7F01CC01C4093E707061CC0D52904
:1002F0001C407D761306F60FF18F1CC01C4037079B
:10030000F1FF7D1793E707201CC01C40B7050800CC
:10031000B7060140F98F1CC01C40CD8F1CC0C147DF
:100320001CC89C4693E707209CC683A7064093E71A
:10033000070123A0F64083A5C640B727014093E5F7
:10034000050123A6B64083A5864093E5050123A4B5
:10035000B64083A5464193E5050123AAB64083A58F
:10036000464093E5050123A2B64003270480718F20
:100370002320E48003270480370600F17D16232024
:10038000E48003270440718F2320E44003270440C6
:1003900037060009518F2320E440D8423706200059
:1003A000518FD8C203A7474085669386168023A243
:1003B000E74003A78740558F23A4E74023A80740C1
:1003C00023A6074223A8074223AA07429844B71747
:1003D0000E0094449387079C3E9763F7E600B7F6B8
:1003E00000E09C46E3EFE7FEB7170240D843D17622
:1003F0009386F6F0758FD8C3D843A2401244136792
:10040000070ED8C3B7F600E0B727393B23A4060090
:10041000938707209CCA824431018280311106C82B
:1004200022C626C4B7E700E0056723A0E71085468B
:1004300023A2D7103707100023A0E710214723A0DD
:10044000E710F327003093E7870873900730B7046D
:1004500000208565938585CA13850407DD29B74784
:10046000000883A707FC37070020230CF7048567E3
:100470008546938747D123AAD1803EC283A7418175
:100480001147E36DF7FE12478A07BA979C438287AC
:1004900085679385C7CB13850407652903A7418129
:1004A0008D47E31DF7FC99679387879D3EC02D26F6
:1004B0008526B70700201375F50F9385E7000D46D5
:1004C0002388A180A939B707002001478146938579
:1004D0000700494613850407F5262126B7F700E0F3
:1004E000984782469C47369763F7E700B7F600E0E7
:1004F0009C46E3EFE7FE03A741818D47E309F7FA46
:10050000B5BFD92CB7F700E098479C471307670E93
:1005100063F7E700B7F600E09C46E3EFE7FED1247F
:10052000C52CB70700201375F50F238CA704613184
:10053000B747000803A707FCB7060020B7F700E09D
:10054000238CE6049847944785679387871F3E97D7
:1005500063F7E600B7F600E09C46E3EFE7FE2AC04B
:10056000A52C0245B7070020938557010546453E57
:10057000B707002003C58705B707002093855702FA
:100580000D46713EB707002001479385470181461C
:100590005546138504073D26B7F700E098479C476A
:1005A0001307971563F7E700B7F600E09C46E3EF03
:1005B000E7FE052C914723AAF180C9B5312CB7F786
:1005C00000E098479C471307670E63F7E700B7F60C
:1005D00000E09C46E3EFE7FE29241D2CB70700202E
:1005E00083C787051375F50F2388A18063E6A70AE3
:1005F000B70700209385B7030D461536B7070020CF
:10060000014781464D469385C702138504075D2C3B
:1006100055B7B7F700E098479447B787030093872B
:1006200007273E9763FBE600B7F600E021A09C4653
:1006300063F5E70083A74181FDDB83A74181E39F49
:1006400007E28DBF1385040781268567938587CED2
:1006500013850407FD2C138504073D26B7170240B8
:10066000984FF1769386B6DF758F98CFB7F600E096
:1006700003A706D15D9B23A8E6D073005010984FC6
:10068000916693865623558F98CF85679385C7CFFC
:10069000138504077D2CDDB3F327003093F777F73C
:1006A00073900730A122B7F700E098479447AD67F1
:1006B0009387073B3E9763F7E600B7F600E09C465A
:1006C000E3EFE7FE0D2AF327003093E787087390E6
:1006D000073003C50181B70700209385F7040D4655
:1006E0003D3CB7070020014781464D4693850704EE
:1006F00013850407C12A7DBD3705002013050507B2
:10070000552473002030B707014003A74741136702
:10071000070123AAE740ED20B707002003C707061B
:100720006304A7022380A70615C18565370500204D
:10073000938585D213050507292CB7F700E0984764
:1007400023A6E18023AA0180730020308565370548
:1007500000209385C5D313050507E52AB7F700E008
:100760009C4703A6C1809306500E918F23A6F1806B
:1007700063FCF6001167130737EE636CF70005475B
:1007800023AAE18073002030114723AAE18073007F
:1007900020304567130777D86367F700094723AA16
:1007A000E180730020300D4723AAE18073002030E0
:1007B000252001A0B7E602000566B74501403705D0
:1007C0000020814701479386C6C61306062C9385F1
:1007D000058013050507ADA8B71701400947D8CB19
:1007E0008280B7170140094798CB8280B717014034
:1007F000114798CB8280B71701401147D8CB828030
:10080000B71701408847118113451500058982807B
:10081000B727014003A7874093870740058B09E767
:1008200098471367170098C7B727014083A68740EA
:100830003727014093E6160023A4D74083270740BB
:10084000898BEDDF0325C7442181420541818280E8
:10085000411122C426C206C62309050CA309050CB2
:10086000230A050C2E84232CB50CA30A050CB28593
:100870003685BA843EC0EFF0BF82420541810967E8
:100880002314A4001307C7022316E40083560401AF
:100890001397C4008247558F4207418305462318AA
:1008A000E4006398C7008357C4000567D98F2316F7
:1008B000F400231A0400B24023100400224492449E
:1008C00041018280AA870345350D03C3270D050525
:1008D000630F650603C5270D11E583C2370D254358
:1008E0006388620603C3370D254512033E93232216
:1008F000B30083C5370D9205BE952394C50003C68A
:10090000370D12063E962315060003C6370D120654
:100910003E9654C683C6370D9206BE962380E600E7
:1009200003C7370D05071377F70FA389E70C03C734
:10093000370D6374E500A389070C03A7870D0545F0
:100940008357C70093E707082316F7008280014505
:100950008280511122C226C006C483C705002E849E
:10096000AA848DC3138515003D2613061500420683
:100970004182A2851244A2402685824401478146D5
:10098000310189B70146F5B70327850D8357070065
:1009900093F70704E5DF8346250D8347350DE3977D
:1009A000F6FE82808327850D411106C603D7070016
:1009B0001377070811C703D7C7001377070845EF58
:1009C00003D707001377070255C303D7C700137770
:1009D000070249CF03D7C7008566758F21CB034730
:1009E000450D19E78346550D130710036380E60490
:1009F0000347550D8346450D05076309D70283D686
:100A000047000347550D13061003A1822A972300C0
:100A1000D70A0347550D05071377F70FA30AE50C0F
:100A20000347550D6374E600A30A050C0347450D03
:100A30007DC70347550D8346450D05076308D7025B
:100A400003D647000347550D930610032A9723004A
:100A5000C70A0347550D05071377F70FA30AE50CDF
:100A60000347550D63F4E600A30A050CB24023903A
:100A70000700410182808346250D0347350D6387BA
:100A8000E60A0347250D8346250D0346250D12076B
:100A90002A9703470700058B4DC70347250D92068C
:100AA000120612072A972A96AA968355A600D442C0
:100AB0000356A700AE96090683D606002315C70085
:100AC0002392D7008346250D0347250D9206120772
:100AD000AA962A9783D6A60003578700E3E2E6EE9C
:100AE0008347250D9207AA97DC4789CB8347250DBD
:100AF0002AC09207AA97DC47829702458347250DB3
:100B00002547850793F7F70F2309F50C8347250D34
:100B1000637DF7048327850D2309050C55B58346AE
:100B2000550D13071003E396E6F089B703D7C70006
:100B3000420741831377F7F7420741832396E70083
:100B400041B50347250D9206120612072A972A96E9
:100B5000AA968355A600D4420356A700AE96050672
:100B600083C606002315C700A1BF8327850D89BD55
:100B700001A001A001A001A001A001A001A001A06D
:100B800001A001A001A001A001A001A001A001A05D
:100B900001A001A001A001A001A001A001A001A04D
:100BA00001A001A001A097010020938121CB138116
:100BB00081FA170500001305651A97F5FF1F938545
:100BC00065441386818063FAC5008322050023A053
:100BD000550011059105E3EAC5FE138581809385D3
:100BE000418F6377B500232005001105E36DB5FE45
:100BF00093020008739002308D427390428097F206
:100C0000FFFF9382224093E2320073905230EFF064
:100C10000FE90928970200009382828073901234B2
:100C200073002030511122C2170700001307C712AA
:100C30001704000013044412198C26C006C409844A
:100C4000814463948402170700001307E710170418
:100C500000001304A410198C098481446392840257
:100C6000A240124482443101828093972400BA97B3
:100C70009C4385048297170700001307E70DD1B73F
:100C800093972400BA979C43850482971707000026
:100C90001307870CE1B7AA8703C7070085076DFF15
:100CA0003385A7407D1582805541525420697320B9
:100CB000776F726B212121200A0000004D6561735E
:100CC0007572656D656E74206379636C652C206345
:100CD0006C69636B20627574746F6E20666F72202E
:100CE000657869740A000000636869702066616C49
:100CF0006C2061736C6565700A0000006368697040
:100D00002077616B65207570205C285E6F5E292FEF
:100D10000A00000012060000BC05000002050000E9
:100D20009004000044060000627574746F6E2077B2
:100D3000617320707265737365640A006275747400
:100D40006F6E207761732072656C65617365640AEC
:040D5000000000009F
:040D5400B4070000E0
:100D580053656E736F722076616C75653A205858CA
:100D6800580A00002858292073656E7320626F7234
:100D78006465723A205858580A00000047726F7527
:100D88006E64206973207765743A205858580A00B1
:100D980047726F756E64206973206472793A2058BF
:100DA80058580A000000000032000000000000004F
:00000001FF
