:100000006F00B0170000000044090000DC0500008C
:1000100000000000000000000000000000000000E0
:1000200000000000000000000000000000000000D0
:1000300048090000000000004A090000000000001C
:100040004C0900004E090000500900005209000050
:100050001E05000056090000580900005A0900005A
:100060005C0900005E0900006009000062090000F0
:100070006409000066090000680900006A090000C0
:10008000100500006E0900007009000072090000F0
:1000900074090000760900007809000000000000E3
:1000A000634E050263C305042E86AA857D5515C2DD
:1000B00085466378B6006356C00006068606E36C84
:1000C000B6FE014563E4C500918D558D858205829C
:1000D000F5FA82808682C93F2E8582823305A04050
:1000E0006347B000B305B040C1B7B305B0408682E6
:1000F000653F3305A0408282868263C7050063495D
:1001000005005D372E858282B305B040E35B05FEB6
:100110003305A040513F3305B040828200003111C9
:1001200006C822C626C42EC0AA872DED930600035A
:100130003387C500A30FD7FE81449306E6FF02472D
:100140003304D70063D90602A9A0A9453E85B9C7E3
:100150003EC25D3792479306050393F6F60F3E8540
:100160002300D400A9452D3F0247AA879306F4FF38
:10017000630187023684B3869700E1FA024793074A
:1001800000022300F400814481479306F4FFE31347
:1001900087FEC2403244A244510182809306D002BD
:1001A000814475BF9306F6FF8144E35A05F8B3070F
:1001B000A040854469B7B7170240D843D1765111A2
:1001C0009386F6F022C226C006C4758FD8C3D843E2
:1001D0009166938656231367070BD8C3984FB7F4DD
:1001E00000E037140140558F98CF23A40400FD5739
:1001F0009CC8AD479CC01C4093F7F7F01CC01C4046
:1002000093E707061CC021211C40FD769386F60F5C
:10021000F58F1CC01C403707F1FF7D1793E70720BF
:100220001CC01C40B7050800F98F1CC010403707E0
:1002300001404D8E10C0414610C81047136606207D
:1002400010C703260740136606012320C740032674
:10025000C740136606012326C7400326874013665E
:1002600006012324C7400326474113660601232ABB
:10027000C74003264740136606012322C740832751
:100280000480F58F2320F48083270480B70600F1D3
:10029000FD162320F48083270440F58F2320F440AB
:1002A00083270440B7060009D58F2320F4405C4320
:1002B000B7062000D58F5CC39844B7170E0094444E
:1002C0009387079C3E9763F7E600B7F600E09C46ED
:1002D000E3EFE7FEB7170240D843D1769386F6F0F6
:1002E000758FD8C3D843A24012441367070ED8C3F2
:1002F000B7F600E0B727393B23A406009387072011
:100300009CCA824431018280511106C422C226C097
:10031000B7E700E0056723A0E710054723A2E71031
:100320003707100023A0E710214723A0E710F32789
:10033000003093E7870873900730B7070020856582
:100340001385C7069385C5A7ED2EB7070020370490
:100350000020238C0704914409478327C4058D4658
:10036000638FD70463E7F60A638F0710E397E7FE0E
:10037000F124B707002083C787051375F50F23887D
:10038000A18063E5A712B70700209385B7030D4648
:100390007933B70700209385C702B70700200147CC
:1003A00081464D461385C70631269547232EF40412
:1003B0008327C4058D4691440947E395D7FABD2CA0
:1003C000B7070020BE84238CA7042D2C03C5840509
:1003D000B7070020938557020D469133B7070020D9
:1003E00093854701B707002001471385C70681465B
:1003F0005546C924B7F700E098479C471307670E96
:1004000063F7E700B7F600E09C46E3EFE7FE012460
:1004100069BFE39497F48567938507A9B707002020
:100420001385C706392E8327C405E39697F299648E
:100430009384849D2124B70700201375F50F9385BD
:10044000E7000D462388A180D939B707002093859E
:100450000700B707002001471385C70681464946B4
:10046000912CB7F700E098479C47269763F7E70081
:10047000B7F600E09C46E3EFE7FE0327C40591478B
:10048000E30AF7FAC9BDBD2AB7F700E098479C47D1
:100490001307670E63F7E700B7F600E09C46E3EF4B
:1004A000E7FEB5228547232EF40475B5F327003007
:1004B00093F777F7739007308522B7F700E09847F6
:1004C0009447AD679387073B3E9763F7E600B7F61F
:1004D00000E09C46E3EFE7FEA922F327003093E714
:1004E00087087390073003C50181B7070020938503
:1004F000F7040D462D31B707002093850704B70791
:100500000020014781464D461385C706652271BD0F
:10051000370500201305C506852473002030B70772
:10052000014003A747411367070123AAE740FD28BD
:10053000B707002003C707066306A7022380A706A4
:1005400005C58565370500209385C5AB1305C50630
:10055000CD2AB707002023AE0704B7F700E098477D
:1005600023A6E18073002030856537050020938540
:1005700005AD1305C506F122B7F700E09C4703A6B9
:10058000C1809306500E918F23A6F18063FEF60082
:100590001167130737EE6360F702B70700200947BA
:1005A00023AEE70473002030B7070020154723AEC1
:1005B000E704730020304567130777D86369F700B5
:1005C000B70700200D4723AEE70473002030B707BC
:1005D0000020114723AEE70473002030252001A03E
:1005E000B7E602000566B7450140370500208147A0
:1005F00001479386C6C61306062C9385058013050E
:10060000C50681A0B71701400947D8CB8280B7172C
:100610000140094798CB8280B7170140114798CB1A
:100620008280B71701401147D8CB8280B7170140AD
:1006300088471181134515000589828013054006FE
:100640008280411122C426C206C62309050CA309D3
:10065000050C230A050C2E84232CB50CA30A050CCB
:10066000B2853685BA843EC0253C42054181096782
:100670002314A4001307C7022316E40083560401C1
:100680001397C4008247558F4207418305462318BC
:10069000E4006398C7008357C4000567D98F231609
:1006A000F400231A0400B2402310040022449244B0
:1006B00041018280AA870345350D03C3270D050537
:1006C000630F650603C5270D11E583C2370D25436A
:1006D0006388620603C3370D254512033E93232228
:1006E000B30083C5370D9205BE952394C50003C69C
:1006F000370D12063E962315060003C6370D120667
:100700003E9654C683C6370D9206BE962380E600F9
:1007100003C7370D05071377F70FA389E70C03C746
:10072000370D6374E500A389070C03A7870D054502
:100730008357C70093E707082316F7008280014517
:100740008280511122C226C006C483C705002E84B0
:10075000AA848DC313851500092E130615004206C1
:100760004182A2851244A2402685824401478146E7
:10077000310189B70146F5B78327850D411106C6BA
:1007800003D707001377070811C703D7C7001377EC
:10079000070845EF03D707001377070255C303D7B0
:1007A000C7001377070249CF03D7C7008566758F47
:1007B00021CB0347450D19E78346550D1307100359
:1007C0006380E6040347550D8346450D050763091D
:1007D000D70283D647000347550D13061003A182A5
:1007E0002A972300D70A0347550D05071377F70FFC
:1007F000A30AE50C0347550D6374E600A30A050C34
:100800000347450D7DC70347550D8346450D050735
:100810006308D70203D647000347550D930610031C
:100820002A972300C70A0347550D05071377F70FCB
:10083000A30AE50C0347550D63F4E600A30A050C73
:10084000B24023900700410182808346250D034773
:10085000350D6387E60A0347250D8346250D0346BC
:10086000250D12072A9703470700058B4DC703473D
:10087000250D9206120612072A972A96AA968355E4
:10088000A600D4420356A700AE96090683D60600FA
:100890002315C7002392D7008346250D0347250D56
:1008A00092061207AA962A9783D6A60003578700B6
:1008B000E3E2E6EE8347250D9207AA97DC4789CB52
:1008C0008347250D2AC09207AA97DC4782970245E5
:1008D0008347250D2547850793F7F70F2309F50C67
:1008E0008347250D637DF7048327850D2309050CB8
:1008F00055B58346550D13071003E396E6F089B707
:1009000003D7C700420741831377F7F742074183B4
:100910002396E70041B50347250D920612061207FC
:100920002A972A96AA968355A600D4420356A70072
:10093000AE96050683C606002315C700A1BF832710
:10094000850D89BD01A001A001A001A001A001A009
:1009500001A001A001A001A001A001A001A001A08F
:1009600001A001A001A001A001A001A001A001A07F
:1009700001A001A001A001A001A097010020938186
:10098000E1ED138181FA170500001305651697F54F
:10099000FF1F938525671386818063FAC500832234
:1009A000050023A0550011059105E3EAC5FE138556
:1009B00081809385018F6377B500232005001105A1
:1009C000E36DB5FE93020008739002308D42739080
:1009D000428097F2FFFF9382E26293E232007390CB
:1009E0005230EFF04FFD09289702000093820292E7
:1009F0007390123473002030511122C21707000087
:100A00001307C70E170400001304440E198C26C0E8
:100A100006C4098481446394840217070000130705
:100A2000E70C170400001304A40C198C09848144FA
:100A300063928402A24012448244310182809397DF
:100A40002400BA979C438504829717070000130778
:100A5000E709D1B793972400BA979C4385048297FE
:100A60001707000013078708E1B7AA8703C7070025
:100A700085076DFF3385A7407D158280554152540F
:100A800020697320776F726B212121200A000000FA
:100A90004D6561737572656D656E74206379636C05
:100AA000652C20636C69636B20627574746F6E20B3
:100AB000666F7220657869740A000000627574744C
:100AC0006F6E2077617320707265737365640A00BE
:100AD000627574746F6E207761732072656C6561E6
:080AE0007365640A00000000C8
:040AE800E005000025
:100AEC0053656E736F722076616C75653A20585839
:100AFC00580A00004E65772073656E7320626F7222
:100B0C006465723A205858580A00000047726F7595
:100B1C006E64206973207765743A205858580A001F
:100B2C0047726F756E64206973206472793A20582D
:100B3C0058580A00000000003200000002000000BB
:00000001FF
