:100000006F00302000000000CC0900002A0600002C
:1000100000000000000000000000000000000000E0
:1000200000000000000000000000000000000000D0
:10003000D009000000000000D2090000000000000C
:10004000D4090000D6090000D8090000DA09000030
:100050006C050000DE090000E0090000E209000074
:10006000E4090000E6090000E8090000EA090000D0
:10007000EC090000EE090000F0090000F2090000A0
:100080005E050000F6090000F8090000FA0900000A
:10009000FC090000FE090000000A0000000000004A
:1000A000634E050263C305042E86AA857D5515C2DD
:1000B00085466378B6006356C00006068606E36C84
:1000C000B6FE014563E4C500918D558D858205829C
:1000D000F5FA82808682C93F2E8582823305A04050
:1000E0006347B000B305B040C1B7B305B0408682E6
:1000F000653F3305A0408282868263C7050063495D
:1001000005005D372E858282B305B040E35B05FEB6
:100110003305A040513F3305B040828200003111C9
:1001200006C822C626C42EC0AA872DED930600035A
:100130003387C500A30FD7FE81449306E6FF02472D
:100140003304D70063D90602A9A0A9453E85B9C7E3
:100150003EC25D3792479306050393F6F60F3E8540
:100160002300D400A9452D3F0247AA879306F4FF38
:10017000630187023684B3869700E1FA024793074A
:1001800000022300F400814481479306F4FFE31347
:1001900087FEC2403244A244510182809306D002BD
:1001A000814475BF9306F6FF8144E35A05F8B3070F
:1001B000A040854469B7B7170240D843D1765111A2
:1001C0009386F6F022C226C006C4758FD8C3D843E2
:1001D0009166938656231367070BD8C3984FB7F4DD
:1001E00000E037140140558F98CF23A40400FD5739
:1001F0009CC8AD479CC01C4093F7F7F01CC01C4046
:1002000093E707061CC099291C407D761306F60F5C
:10021000F18F1CC01C403707F1FF7D1793E70720C3
:100220001CC01C40B7050800B7060140F98F1CC070
:100230001C40CD8F1CC0C1471CC89C4693E70720BB
:100240009CC683A7064093E7070123A0F64083A539
:10025000C640B727014093E5050123A6B64083A514
:10026000864093E5050123A4B64083A5464193E566
:10027000050123AAB64083A5464093E5050123A2C4
:10028000B64003270480718F2320E4800327048075
:10029000370600F17D162320E48003270440718F88
:1002A0002320E4400327044037060009518F232010
:1002B000E440D84237062000518FD8C203A74740F8
:1002C00085669386168023A2E74003A78740558F53
:1002D00023A4E74023A8074023A6074223A80742F8
:1002E00023AA07429844B7170E0094449387079CAB
:1002F0003E9763F7E600B7F600E09C46E3EFE7FEC3
:10030000B7170240D843D1769386F6F0758FD8C3DD
:10031000D843A24012441367070ED8C3B7F600E0D3
:10032000B727393B23A40600938707209CCA824441
:1003300031018280311106C822C626C4B7E700E029
:10034000056723A0E710054723A2E7103707100031
:1003500023A0E710214723A0E710F327003093E7FD
:10036000870873900730B707002085651385C70697
:10037000938545B09929B7070020238C070485672A
:10038000938747B4370400203EC291448327C405B5
:10039000E3EEF4FE12478A07BA979C438287F5245E
:1003A000B7070020238CA7046D24B707002003C5DE
:1003B0008705B7070020938557020D468D33B70791
:1003C000002093854701B707002001471385C70622
:1003D00081465546A526B7F700E098479C47130786
:1003E000670E63F7E700B7F600E09C46E3EFE7FE31
:1003F000B52435A8592CB707002083C78705137586
:10040000F50F2388A18063EAA70EB7070020938524
:10041000B7030D462933B70700209385C702B707F6
:100420000020014781464D461385C706012E95479A
:10043000232EF404A1BF312CB7F700E098479C4766
:100440001307670E63F7E700B7F600E09C46E3EF9B
:10045000E7FE29248547232EF4040DBFB7F700E0FB
:1004600098479447D967938707763E97E3F0E6F27B
:10047000854637F600E021A01C46E3F9E7F0832724
:10048000C405E38BD7FE19B78567938587B1B70796
:1004900000201385C706152E8327C405E39897EE21
:1004A00099679387879D3EC0CD22B70700201375BB
:1004B000F50F9385E7000D462388A1808D31B7079E
:1004C000002093850700B707002001478146138568
:1004D000C7064946A524B7F700E0984782469C47DF
:1004E000369763F7E700B7F600E09C46E3EFE7FED8
:1004F0008327C405E38A97FA51BDF327003093F7A9
:1005000077F7739007308522B7F700E09847944754
:10051000AD679387073B3E9763F7E600B7F600E0C9
:100520009C46E3EFE7FEA922F327003093E7870814
:100530007390073003C50181B70700209385F70446
:100540000D46F13EB707002093850704B70700204A
:10055000014781464D461385C706CD22C9BD3705E3
:1005600000201305C506692C73002030B707014031
:1005700003A747411367070123AAE740FD28B707F0
:10058000002003C707066306A7022380A70605C548
:10059000856537050020938585B51305C506352487
:1005A000B707002023AE0704B7F700E0984723A65B
:1005B000E180730020308565370500209385C5B63E
:1005C0001305C5061924B7F700E09C4703A6C180B0
:1005D0009306500E918F23A6F18063FEF6001167FB
:1005E000130737EE6360F702B7070020094723AE11
:1005F000E70473002030B7070020154723AEE70457
:10060000730020304567130777D86369F700B70791
:1006100000200D4723AEE70473002030B707002009
:10062000114723AEE70473002030252001A0B7E670
:1006300002000566B74501403705002081470147A4
:100640009386C6C61306062C938505801305C5063A
:10065000ADA8B71701400947D8CB8280B717014032
:10066000094798CB8280B7170140114798CB828009
:10067000B71701401147D8CB8280B7170140884790
:1006800011811345150005898280B727014003A712
:10069000874093870740058B09E798471367170042
:1006A00098C7B727014083A687403727014093E6C4
:1006B000160023A4D74083270740898BEDDF03254D
:1006C000C7442181420541818280411122C426C252
:1006D00006C62309050CA309050C230A050C2E8464
:1006E000232CB50CA30A050CB2853685BA843EC00E
:1006F000453A4205418109672314A4001307C70244
:100700002316E400835604011397C4008247558FD3
:100710004207418305462318E4006398C7008357C6
:10072000C4000567D98F2316F400231A0400B240D1
:10073000231004002244924441018280AA87034589
:10074000350D03C3270D0505630F650603C5270D8A
:1007500011E583C2370D25436388620603C3370D55
:10076000254512033E932322B30083C5370D92051E
:10077000BE952394C50003C6370D12063E96231579
:10078000060003C6370D12063E9654C683C6370DC3
:100790009206BE962380E60003C7370D0507137740
:1007A000F70FA389E70C03C7370D6374E500A3892E
:1007B000070C03A7870D05458357C70093E7070874
:1007C0002316F700828001458280511122C226C083
:1007D00006C483C705002E84AA848DC31385150023
:1007E000092E1306150042064182A2851244A2403A
:1007F0002685824401478146310189B70146F5B714
:100800008327850D411106C603D707001377070814
:1008100011C703D7C7001377070845EF03D70700B1
:100820001377070255C303D7C7001377070249CFD1
:1008300003D7C7008566758F21CB0347450D19E7A0
:100840008346550D130710036380E6040347550DD7
:100850008346450D05076309D70283D64700034742
:10086000550D13061003A1822A972300D70A0347C8
:10087000550D05071377F70FA30AE50C0347550D30
:100880006374E600A30A050C0347450D7DC70347C3
:10089000550D8346450D05076308D70203D647006B
:1008A0000347550D930610032A972300C70A0347F1
:1008B000550D05071377F70FA30AE50C0347550DF0
:1008C00063F4E600A30A050CB2402390070041013F
:1008D00082808346250D0347350D6387E60A03476B
:1008E000250D8346250D0346250D12072A9703473C
:1008F0000700058B4DC70347250D92061206120708
:100900002A972A96AA968355A600D4420356A70092
:10091000AE96090683D606002315C7002392D7009A
:100920008346250D0347250D92061207AA962A979E
:1009300083D6A60003578700E3E2E6EE8347250D42
:100940009207AA97DC4789CB8347250D2AC09207D7
:10095000AA97DC47829702458347250D25478507DF
:1009600093F7F70F2309F50C8347250D637DF704F3
:100970008327850D2309050C55B58346550D1307AF
:100980001003E396E6F089B703D7C7004207418317
:100990001377F7F7420741832396E70041B50347F2
:1009A000250D9206120612072A972A96AA968355B3
:1009B000A600D4420356A700AE96050683C60600DD
:1009C0002315C700A1BF8327850D89BD01A001A004
:1009D00001A001A001A001A001A001A001A001A00F
:1009E00001A001A001A001A001A001A001A001A0FF
:1009F00001A001A001A001A001A001A001A001A0EF
:100A000001A097010020938161E5138181FA170508
:100A100000001305A51797F5FF1F9385A55E1386A4
:100A2000818063FAC5008322050023A055001105CB
:100A30009105E3EAC5FE138581809385018F637775
:100A4000B500232005001105E36DB5FE93020008F3
:100A5000739002308D427390428097F2FFFF938231
:100A6000625A93E2320073905230EFF0CFF40928CB
:100A7000970200009382428C7390123473002030EE
:100A8000511122C2170700001307071017040000B6
:100A90001304840F198C26C006C40984814463940E
:100AA0008402170700001307270E17040000130421
:100AB000E40D198C0984814463928402A24012449B
:100AC00082443101828093972400BA979C43850425
:100AD0008297170700001307270BD1B793972400BD
:100AE000BA979C4385048297170700001307C7092C
:100AF000E1B7AA8703C7070085076DFF3385A740C5
:100B00007D1582805541525420697320776F726B36
:100B1000212121200A0000004D6561737572656D09
:100B2000656E74206379636C652C20636C69636BFC
:100B300020627574746F6E20666F722065786974B8
:100B40000A000000360400005C040000F40300000A
:100B50009E03000088040000627574746F6E207735
:100B6000617320707265737365640A0062757474D2
:100B70006F6E207761732072656C65617365640ABE
:040B80000000000071
:040B84002E06000039
:100B880053656E736F722076616C75653A2058589C
:100B9800580A00004E65772073656E7320626F7285
:100BA8006465723A205858580A00000047726F75F9
:100BB8006E64206973207765743A205858580A0083
:100BC80047726F756E64206973206472793A205891
:100BD80058580A000000000032000000020000001F
:00000001FF
